:020000040800F2
:10000000700A002071020008FB2100089B1D0008F7
:10001000F92100088B0700086B2900080000000088
:10002000000000000000000000000000B1240008F3
:100030008D07000800000000FD210008B32400081F
:100040008B0200088B0200088B0200088B0200085C
:100050008B0200088B0200088B0200088B0200084C
:100060008B0200088B0200088B0200088B0200083C
:100070008B0200088B0200088B0200088B0200082C
:100080008B0200088B0200088B0200088B0200081C
:100090008B0200088B0200088B0200088B0200080C
:1000A0008B0200088B0200088B0200088B020008FC
:1000B0008B0200088B0200088B0200088B020008EC
:1000C0008B0200088B0200088B0200088B020008DC
:1000D0008B0200088B0200088B0200088B020008CC
:1000E0008B0200088B0200088B0200088B020008BC
:1000F0008B0200088B0200088B0200088B020008AC
:100100008B0200088B0200088B0200088B0200089B
:100110008B0200088B0200088B0200088B0200088B
:100120008B0200088B0200088B0200088B0200087B
:100130008B0200088B0200088B0200088B0200086B
:100140008B0200088B0200088B0200088B0200085B
:100150008B0200088B0200088B0200088B0200084B
:100160008B0200088B0200088B0200088B0200083B
:100170008B0200088B0200088B02000800000000C0
:100180008B0200088B02000800F002F800F061F812
:100190000AA090E8000C82448344AAF10107DA45E2
:1001A00001D100F056F8AFF2090EBAE80F0013F0D3
:1001B000010F18BFFB1A43F0010318473431000048
:1001C000543100000A444FF0000C10F8013B13F0CA
:1001D000070408BF10F8014B1D1108BF10F8015BA0
:1001E000641E05D010F8016B641E01F8016BF9D193
:1001F00013F0080F1EBF10F8014BAD1C0C1B09D1EA
:100200006D1E58BF01F801CBFAD505E014F8016B5B
:1002100001F8016B6D1EF9D59142D6D370470000ED
:100220000023002400250026103A28BF78C1FBD8FF
:10023000520728BF30C148BF0B607047752900F0D6
:10024000F780002070471FB503F024F81FBD10B5DC
:1002500010BD00F060FA1146FFF7F5FF02F096FBC3
:1002600000F07EFA03B4FFF7F2FF03BC00F086FA59
:100270000948804709480047FEE7FEE7FEE7FEE73A
:10028000FEE7FEE7FEE7FEE7FEE7FEE70448054976
:10029000054A064B7047000029250008890100081F
:1002A00070040020700A00207006002070060020F4
:1002B00053EA020C00F069802DE9F04B4FF0000684
:1002C000002B1FBFB3FA83F503FA05F424FA05F6F1
:1002D0005E4012BF1643B2FA82F502FA05F4C5F188
:1002E00020051EBF22FA05FC44EA0C04203556EA1C
:1002F000044C4FEA144418BF641C4FF000084FF040
:100300000009904271EB030C39D3002919BFB1FAEF
:1003100081F701FA07F6B0FA80F700FA07F6C7F19D
:1003200020071EBF20FA07FC46EA0C062037B6FB62
:10033000F4FCA7EB0507103F07F01F0BCBF12006DD
:100340000CFA0BFB2CFA06F644BFB3460026202F0E
:10035000A4BF5E464FF0000B5BEA060C08BF4FF0EF
:10036000010B19EB0B09ABFB027C48EB0608C01B29
:1003700006FB02CC0BFB03CC71EB0C01C1E70B4677
:10038000024641464846BDE8F08B13B54FF00000E9
:100390004FF00001AFF30080BDE81C407047000043
:1003A0000FB41CB5074B06AA7B446946009005981C
:1003B00000F099F90020694600F0A8F91CBC5DF82E
:1003C00014FB0000610300002DE9F0410E460446D5
:1003D000002020622046E168884730B3252805D0F8
:1003E000D4E901219047206A401CF2E7E1682046E9
:1003F00000278847050018D0A5F14100192802D828
:1004000020354FF400673246294620462760FFF723
:1004100015FF40B1012804D0F61D26F00706083666
:10042000D8E7361DD6E72846DAE7206ABDE8F0812E
:100430002DE9F0410646002410687529314616A5BD
:1004400010D0AFF30080002802DA404213A507E085
:1004500031688A0701D512A502E0490704D511A524
:10046000012401E0AFF3008000210A2206F12407F5
:1004700009E0B0FBF2FCB0FBF2F302FB1C003030F1
:1004800078541846491C0028F3D123462A463046A2
:10049000BDE8F04100F0C9B8000000002D000000E8
:1004A0002B0000002000000040EA0103024630B5A6
:1004B0009B0710D14FF0013400E008C208C91D1B92
:1004C0009D4315EAC41FF8D013F0FF0102F8011B89
:1004D0000DD01B0AF8E711F8013B002B02F8013B95
:1004E00005D011F8013B002B02F8013BF3D130BDE0
:1004F00010B5431C02E010F8011B71B18107FAD15D
:100500004FF0013202C88C1A8C4314EAC211F9D0A0
:10051000C01A0A0603D0C01E10BDC01A10BD0A04BE
:1005200001D0801E10BD0902FCD0401E10BD10B5C8
:10053000203AC0F00B80B1E81850203AA0E81850DB
:10054000B1E81850A0E81850BFF4F5AF5FEA027C9C
:1005500024BFB1E81850A0E8185044BF18C918C00B
:10056000BDE810405FEA827C24BF51F8043B40F8AC
:10057000043B08BF7047D20728BF31F8023B48BF91
:1005800011F8012B28BF20F8023B48BF00F8012BCF
:1005900070474FF000020429C0F0128010F0030CE5
:1005A00000F01B80CCF1040CBCF1020F18BF00F866
:1005B000012BA8BF20F8022BA1EB0C0100F00DB815
:1005C0005FEAC17C24BF00F8012B00F8012B48BF73
:1005D00000F8012B70474FF0000200B51346944617
:1005E0009646203922BFA0E80C50A0E80C50B1F18B
:1005F0002001BFF4F7AF090728BFA0E80C5048BF9F
:100600000CC05DF804EB890028BF40F8042B08BF3C
:10061000704748BF20F8022B11F0804F18BF00F838
:10062000012B70477047704770472DE9F0470D4622
:1006300099469246044600F124080168880604D5CC
:10064000E06921F01001216000E00120A84201DDF5
:10065000471B00E00027A1697A1902EB0900081A7C
:10066000A0612078C00602D42046AFF300800026A7
:1006700008E0D4E901211AF806009047206A401CDE
:10068000761C20624E45F4DB2078C0060AD5204651
:10069000AFF3008006E0D4E9012130209047206AC2
:1006A000401C2062381EA7F10107F4DC07E0D4E902
:1006B000012118F805009047206A401C2062281E7E
:1006C000A5F10105F3DC2046AFF300802078000699
:1006D00002D50220BDE8F0870120FBE701694A1C32
:1006E00002610878704700B58FB0CDE90131002173
:1006F000059105497944CDE9031011466846FFF795
:1007000063FE0FB000BD0000E5FFFFFF0A6802F8BE
:10071000010B0A607047754600F02CF8AE460500E4
:100720006946534620F00700854618B020B5FFF70C
:10073000ADFDBDE820404FF000064FF000074FF040
:1007400000084FF0000B21F00701AC46ACE8C009EF
:10075000ACE8C009ACE8C009ACE8C0098D467047F8
:1007600010B50446AFF300802046BDE81040FFF707
:1007700079BD00000048704710040020014918208E
:10078000ABBEFEE7260002007047FEE7704772B678
:10079000FEE7000070B5044600F022F90546601C33
:1007A00002D004480078044400F01AF9401BA0422B
:1007B000FAD370BD0C0200202DE9F04FDFF8EC9168
:1007C00000220127A9F1040B85B003254FF00F0C7F
:1007D00009F1040AABF1040EE0E000BF07FA02F4ED
:1007E00016EA04037ED00E7906F00306012E01D02E
:1007F000022E1FD186680096560005FA06F8049668
:10080000009E26EA08060096D1F80C80049E08FA9D
:1008100006F8009E48EA0608C0F80880466891F885
:100820000480A643C8F3001808FA02F848EA06084C
:10083000C0F80480D1F804806FEA0806B6070AD130
:10084000C66AA643C8F3C00494403443C4620C791A
:10085000E443A4070AD0C4684FEA420805FA08F640
:10086000B4438E6806FA08F62643C6600C7904F095
:100870000304022C11D1D40800EB84060296D6F8AA
:1008800020805407E60E0CFA06F428EA04080C69E6
:10089000B440029E44EA080434620468560002969A
:1008A00005FA06F6B4430E7906F00308029E08FA2C
:1008B00006F848EA0408C0F800804C6814F4403F89
:1008C0006BD03B4C266E46F001062666246E22F065
:1008D000030604F001040094364C34440294A468E6
:1008E000960700E059E04FEA16780CFA08F6B44390
:1008F000B0F1904F04D0304EB04203D101261BE03E
:10090000002619E02D4EB04201D1022614E02C4EF3
:10091000B04201D103260FE02A4EB04201D1042695
:100920000AE0294EB04201D1052605E0274EB0422B
:1009300001D1062600E0072606FA08F62643029CA7
:10094000A660D9F800404E46D1F804809C435FEA87
:10095000C82800D51C433460DAF800405646D1F868
:1009600004809C435FEA882800D51C433460DBF890
:1009700000405E46D1F804809C435FEA883800D589
:100980001C433460DEF800407646D1F804809C4376
:100990005FEAC83800D51C433460521C0B681E4601
:1009A000D3407FF41BAF05B000F012B8080401403B
:1009B0000010024000000140000400480008004808
:1009C000000C0048001000480014004800180048BF
:1009D00030BCBDE8C08F0AB1816170478162704749
:1009E00001488068704700000C02002090F8412008
:1009F000202A24D190F84020012A20D0012280F81A
:100A00004020242280F841200268136823F001036B
:100A100013600268136823F480531360026813683C
:100A20000B43136001680A6842F001020A6020214A
:100A300080F84110002180F84010084670470220DD
:100A4000704790F84120202A22D190F84020012AB6
:100A50001ED0012280F84020242280F84120026824
:100A6000136823F0010313600268136823F47063B2
:100A700043EA0121116001680A6842F001020A603C
:100A8000202180F84110002180F84010084670476E
:100A90000220704770B5040004D094F8410000258E
:100AA00010B106E0012070BD84F84050204600F0EF
:100AB00079F9242084F841002068016821F00101BF
:100AC00001606068216820F07060086120688168BA
:100AD00021F400418160E0680128A06807D040F45B
:100AE000044021688860E068022803D006E040F4F2
:100AF0000040F6E721684FF40060486020684168D4
:100B0000114A114341602068C16821F40041C1606D
:100B1000D4E904010843A16940EA01202168C860C2
:100B2000D4E907010843216808602068016841F0A2
:100B3000010101606564202084F84100256384F888
:100B40004250002070BD0000008000022DE9F84FE7
:100B5000044690F84100DDF828A01F4690468B46D9
:100B600020287ED194F8400001287AD0012084F812
:100B70004000FFF735FF0646012200901923D103FC
:100B8000204601F0C5F9E0BB222084F84100102086
:100B900084F8420000256564C4F824806785656395
:100BA000618D3148FF274FF080784FF00079FF29A1
:100BB00003D927853A46009039E0618D2185009060
:100BC0003AE05946204601F08BF913E001F0CCF9E8
:100BD000B8B92068406A616A0870606A401C606247
:100BE000208D401E80B22085618D491E6185618DFA
:100BF00001B168B1608D3246002851462046E5D1EA
:100C000000E002E001F0FEF9D0B1012000F030B8C0
:100C10005346002280212046009601F079F90028F1
:100C2000F3D1608DFF2804D927853A4600954346C5
:100C3000C7E7608D2085009594F828204B46C0E7D3
:100C400021682020C86121684A68084B1A404A6020
:100C500084F8410084F8425084F840500020D5E7E1
:100C6000FFE70220D2E700000024008000E800FE39
:100C700018BCBDE8E08F00002DE9F84F044690F85D
:100C80004100DDF828A01F4690468B4620287ED1E3
:100C900094F8400001287AD0012084F84000FFF742
:100CA0009FFE0646012200901923D103204601F041
:100CB0002FF9E0BB212084F84100102084F8420085
:100CC00000256564C4F8248067856563618D3148BB
:100CD000FF274FF080784FF00079FF2903D927854F
:100CE0003A46009039E0618D218500903AE05946FE
:100CF000204601F0F5F813E001F0AAF9B8B9606AEE
:100D0000216800788862606A401C6062608D401EC5
:100D10006085208D401E80B22085618D01B168B153
:100D2000608D3246002851462046E5D100E002E0C1
:100D300001F068F9D0B1012000F030B8534600222C
:100D400080212046009601F0E3F80028F3D1608D61
:100D5000FF2804D927853A4600954346C7E7608DAA
:100D60002085009594F828204B46C0E72168202074
:100D7000C86121684A68084B1A404A6084F84100FB
:100D800084F8425084F840500020D5E7FFE7022065
:100D9000D2E700000020008000E800FE18BCBDE89B
:100DA000E08F000030B5A9B00446142122A8FFF757
:100DB00012FC88216846FFF70EFC1749206888421C
:100DC00028D10025402014950090684600F0EEF8E8
:100DD00008B1FFF7DCFC114CE06C40F00200E0646D
:100DE000E06C22A900F0020027904FF4407022909E
:100DF0001220CDE9230503202590042026900848E1
:100E0000FFF7DAFCA06D40F40010A065A06D00F4BF
:100E10000010279029B030BD00540040001002405F
:100E200000040048024881680278114481607047DC
:100E30000C020020094810B50168002441F48071BB
:100E40000160032000F064F8002000F009F808B108
:100E5000012401E000F026F8204610BD00200240E9
:100E600070B50E4E05460024307898B14FF47A7173
:100E7000B1FBF0F00A490968B1FBF0F000F008FEA0
:100E800040B9102D06D200222946501E00F020F84D
:100E9000756000E00124204670BD00000C020020B7
:100EA00018020020094808B5016E41F001010166F1
:100EB000016E01F001010091816D41F08051816569
:100EC000806D00F08050009008BD000000100240CE
:100ED000F0B40E4B1B680C46C3F30223C3F10705A5
:100EE000042D00D90425191D072901D2002300E093
:100EF000DB1E012606FA05F1491E214099409E405D
:100F0000761E16403143F0BC01F030BD0CED00E020
:100F1000064900F0070208684FF6FF03184040EA50
:100F20000220034A10430860704700000CED00E007
:100F30000000FA051649B0F5007F0868C0F34120AB
:100F400009D0022805D0086820F4C06040F4806011
:100F50000860002070470128FBD0086820F4C060BA
:100F600040F4007008600B483222006850430A4A7F
:100F7000B0FBF2F0401C00E0401E4A69520501D56A
:100F80000028F9D148694005E3D5032070470000E7
:100F9000007000401802002040420F000248006824
:100FA00000F4C06070470000007000402DE9F84F69
:100FB000044600270088E54D3E46010504F1200B5C
:100FC0001DD5606E78B1B0F5800F11D0B0F5000F6F
:100FD00004D0B0F5400F22D001270FE0E86840F4BC
:100FE0008030E8601BE00021201D01F009F903E0DA
:100FF0000021584601F09AF9070010D03E4620889B
:10100000C00426D5A06EC0B1B0F1807F1AD0B0F177
:10101000007F0DD0B0F1407F19D0012718E0D5F83E
:101020008800616E20F440000843C5F88800E6E7B8
:10103000E86840F48030E86009E00021201D01F0FC
:10104000DFF803E00021584601F070F90746F7B1D8
:101050003E46206880033AD5A86D4FF00008C000D6
:1010600009D4A86D40F08050A865A86D4FF0010824
:1010700000F080500090DFF8D8A2DAF8001041F4B8
:101080008071CAF80010FFF7ABFC814610E0D5F87C
:101090008800A16E20F040700843C5F88800D8E7AA
:1010A000FFF79EFCA0EB0900022801D9032705E009
:1010B000DAF80000C005F3D5002F7CD04FEA070610
:1010C000B8F1000F03D0A86D20F08050A8652078FB
:1010D000C00707D0D5F88800A16B20F003000843B3
:1010E000C5F888002078800707D5D5F88800E16B1F
:1010F00020F00C000843C5F888002078400707D589
:10110000D5F88800216C20F030000843C5F888002D
:101110002078000707D5D5F88800616C20F0C00062
:101120000843C5F888002078C00607D5D5F88800A0
:10113000A16C20F440700843C5F888002078800630
:1011400007D5D5F88800E16C20F440600843C5F865
:1011500088002088800507D5D5F88800E16D20F447
:1011600040200843C5F888002088400507D5D5F8F9
:101170008800216E20F440100843C5F888002078CC
:10118000400607D5D5F88800216D20F4405008436B
:10119000C5F888002078000607D5D5F88800616D6D
:1011A00020F440400843C5F888002088C00509D5D0
:1011B000D5F8880000E01CE0A16D20F44030084321
:1011C000C5F8880020884FF0006780044FF08068E1
:1011D0004FD5D5F88800E16E20F040600843C5F88F
:1011E0008800E06EB8423CD1E86840F48010E860C6
:1011F0003FE0D5F8900010F4407015D0D4F884107A
:10120000814211D0D5F89000D5F8901020F44070AC
:1012100041F48031C5F89010D5F8901021F4803158
:10122000C5F89010C5F89000C00710D0FFF7D8FBA4
:10123000074641F2883906E0FFF7D2FBC11B49455A
:1012400001D903263CE7D5F890008007F4D5D5F8FE
:101250009000D4F8841020F440700843C5F8900042
:101260002EE7404505D10121201D00F0C9FF00B146
:1012700006462068000317D5D5F88800216F20F0B6
:1012800040600843C5F88800206FB84204D1E86880
:1012900040F48010E86007E0404505D10121201DA1
:1012A00000F0AEFF00B106462068400317D5D5F820
:1012B0008800616F20F040600843C5F88800606FC7
:1012C000B84204D1E86840F48010E86007E0404587
:1012D00005D10121201D00F093FF00B106462088B2
:1012E00040041AD5D5F88800A16F20F0405008437B
:1012F000C5F88800A06FB0F1805F03D0B0F1005F47
:1013000005D00AE00221201D00F07AFF03E002214F
:10131000584601F00BF800B106462088000407D5B6
:10132000D5F88800E16F20F080400843C5F88800B8
:101330002068C00307D555F8880FD4F8801020F036
:10134000004008432860304600F004B80010024016
:101350000070004018BCBDE8E08F00002DE9F047A8
:101360000F46050058D0404E306800F00700B842E4
:1013700009D2306820F0070038433060306800F050
:101380000700B84248D12878384CC0072CD068688C
:10139000032811D0022812D0216898B149050029EC
:1013A0003ADAA16821F003010143A160FFF718FBBD
:1013B000804641F2883910E021688901EFE7216811
:1013C0008903ECE78907EAE7FFF70AFBA0EB0801CE
:1013D000494502D90320BDE8F087A068696800F09C
:1013E0000C00B0EB810FEFD12878800705D5A068FD
:1013F000A96820F0F0000843A060306800F0070002
:10140000B8420BD9306820F00700384330603068AC
:1014100000F00700B84201D00120DCE7287840073F
:1014200005D5A068E96820F4E0600843A06028784A
:10143000000706D5A068296920F4605040EAC10081
:10144000A06000F03FF8A168094AC1F30311515CA4
:1014500001F01F01C8400749086007480068BDE85F
:10146000F047FFF7FDBC00000020024000100240E2
:10147000A832000818020020100200200548064982
:1014800000688968054AC1F30221515C01F01F011F
:10149000C84070471802002000100240E8320008DF
:1014A0000548064900688968054AC1F3C221515CB4
:1014B00001F01F01C84070471802002000100240D0
:1014C000E832000870B52549002318468A68CC68C0
:1014D00012F00C0204F00306214C4FEA640509D017
:1014E0000C2A05D0042A32D0082A00D1284670BD23
:1014F000012E10D10B681B0704D4D1F89430C3F32C
:10150000032302E00B68C3F30313164E56F823308F
:10151000DAB10C2AEBD1C86800F00300022818D019
:10152000032818D01846CA68CB68C2F30212C3F366
:1015300006234343521CB3FBF2F2C868C0F3416078
:10154000401C4000B2FBF0F070BD184670BD204654
:1015500070BD2046E7E72846E5E70000001002409E
:101560000024F400B83200082DE9F84304006FD0DD
:10157000FE4DA86800F00C06E86800F0030720782C
:10158000C00664D576B10C2E01D1012F0AD0A06916
:10159000002828687AD040F001002860FFF720FA80
:1015A00080465DE02868800702D5A0690028DED06B
:1015B000216A2868000703D5286800F0F00004E0DD
:1015C000D5F89400F02202EA1010814216D908469C
:1015D00000F030FF00283BD1286840F00800286068
:1015E0002868216A20F0F000084328606868E169F3
:1015F00020F47F4040EA0120686016E0286840F04F
:10160000080028602868216A20F0F000084328605C
:101610006868E16920F47F4040EA0120686026B9EB
:10162000206A00F007FF0028D5D1FFF74BFFA9681B
:10163000CF4AC1F30311515C01F01F01C840CD49ED
:101640000860CD480068FFF70BFC00287ED12EE033
:10165000CAE000BFFFF7C4F9A0EB0800022876D863
:1016600028688007F6D5286840F0080028602868B8
:10167000216A20F0F000084328606868E16920F4DE
:101680007F4040EA0120686011E0FFE720F00100A0
:101690002860FFF7A5F9804606E000BFFFF7A0F934
:1016A000A0EB08000228DAD828688007F6D4207852
:1016B000C00740D0082E18D00C2E01D1032F14D013
:1016C0006068B0F5803F17D0B0F5A02F286817D01C
:1016D00020F480302860286820F48020286060682A
:1016E000E0B1FFF77DF9804614E02868800322D539
:1016F0006068002878D01EE0286840F48030EDE76C
:1017000040F480202860F7E7FFF76AF9A0EB0800B3
:101710006428A4D828688003F6D50CE0FFF760F9A8
:10172000804605E0FFF75CF9A0EB0800642896D836
:1017300028688003F6D4207880073BD5042E11D08A
:101740000C2E01D1022F0DD0E06801E092E1F1E012
:10175000002828681ED040F480702860FFF740F908
:1017600007460CE0286840050CD5E0680028C1D089
:1017700008E000BFFFF734F9C01B022893D828689F
:101780004005F7D56868217C20F0F85040EA0160F8
:1017900068600FE020F480702860FFF721F90746A9
:1017A00005E000BFFFF71CF9C01B0228B1D828686C
:1017B0004005F7D42078000729D560690028D5F8BE
:1017C000940012D040F00100C5F89400FFF708F92A
:1017D000074604E0FFF704F9C01B022899D8D5F8A2
:1017E00094008007F6D512E000E120F00100C5F872
:1017F0009400FFF7F5F8074605E000BFFFF7F0F8A3
:10180000C01B022885D8D5F894008007F6D420782C
:10181000400766D5A86D0027C00008D4A86D40F029
:101820008050A865A86D012700F0805000905348B3
:101830000168C90512D40168814641F480710160D4
:10184000FFF7CEF8804605E0FFF7CAF8A0EB0800E6
:1018500002286FD8D9F80000C005F5D5A068012886
:1018600016D00528D5F8900017D020F00100C5F853
:101870009000D5F8900020F0040000BFC5F890005B
:10188000A06841F28839C0B1FFF7AAF880460FE09E
:10189000D5F8900040F00100F0E740F00400C5F8F2
:1018A0009000F5E7FFF79CF8A0EB0801494541D807
:1018B000D5F890008007F5D50EE0FFF791F8804647
:1018C00006E000BFFFF78CF8A0EB0801494531D8CE
:1018D000D5F890008007F5D41FB1A86D20F0805096
:1018E000A865A06A38B302280AD00C2E7ED02868DA
:1018F00020F080702860286810F0205F77D0AAE080
:10190000E868E26A00F0030191422BD1216B00F0FC
:10191000700209011039914224D1626B00F4FE413A
:10192000B1EB022F1ED1A26B00F40031072A03D0C5
:10193000012202E09DE089E00022914212D1A18FB4
:1019400000F4C00249084905A1F50011914209D1EE
:1019500094F8401000F0C06049084906A1F10071F8
:1019600081425CD00C2E41D0286809E00010024072
:10197000A832000818020020100200200070004069
:1019800040017ED42868C0007BD4286820F0807095
:101990002860FFF725F8064605E000BFFFF720F8AE
:1019A000801B022865D828688001F7D4D4E90B0190
:1019B0006FF00F0202EB01110843A18F5204490896
:1019C00002EB4151626B41EA0221084394F8401056
:1019D0004FF07E42490802EB41610843A16B0909BF
:1019E00040EA4140E968284A114001E049E02EE020
:1019F0000843E860286840F080702860E86840F09C
:101A00008070E860FEF7ECFF044604E0FEF7E8FFB4
:101A1000001B02282DD828688001F7D52FE0286800
:101A200080012CD4286840F080702860E86840F07D
:101A30008070E860FEF7D4FF044604E0FEF7D0FFB4
:101A4000001B022815D828688001F7D517E0E86840
:101A500020F00300E860E8680C490840E860FEF701
:101A6000BFFF044608E000BFFEF7BAFF001B0228D4
:101A700002D90320BDE8F88328688001F4D400204F
:101A8000F8E70120F6E700008C809DF9FFFFEEFEED
:101A900010B5401EB0F1807F01D3012010BD4FF082
:101AA000E02460610F21601700F060FF0020A0615A
:101AB00007202061002010BD10B5040002D0A06FE7
:101AC00010B107E0012010BD002084F8740020460A
:101AD00000F026F82420A0672068016821F00101A9
:101AE0000160204600F0BAFD0128ECD0606A10B118
:101AF000204600F021FD2068416821F490414160BA
:101B00002068816821F02A0181602068016841F025
:101B1000010101602046BDE8104000F071BD0000E9
:101B20002DE9F043A9B00446142122A8FEF753FD85
:101B300088216846FEF74FFD27492068274C032778
:101B4000002502264FF007084FF0904988421BD12C
:101B5000012000900E956846FFF728FA08B1FEF7BD
:101B600016FE206E40F480402066206E00F4804017
:101B70002790E06C40F00100E064E06C00F00100B0
:101B800027904FF4C0601BE01549884221D1009690
:101B900068460F95FFF70AFA08B1FEF7F8FDA06D49
:101BA00040F40030A065A06D00F400302790E06C98
:101BB00040F00100E064E06C00F0010027900C2090
:101BC000CDE9220624AA22A982E8A0014846FEF710
:101BD000F3FD29B0BDE8F083003801400010024059
:101BE000004400402DE9F84F0446C06F9A4616465F
:101BF0000D46202870D10DB306B394F87400012867
:101C00006AD0012084F874004FF00008C4F8808086
:101C10002221E167C4F860805834FEF7E1FE24F821
:101C2000026B814624F852694FF4805354F8080936
:101C3000FF21984208D122691AB11CE0012000F06E
:101C40004DB840F2FF1116E07F2290B1B0F1805FF5
:101C500014D0A4F85C8000BFB4F85C70984201D145
:101C6000206990B12E46002584F8748007F0FF08A3
:101C700025E0266936B9A4F85C10EDE7216909B1C1
:101C80003F21F8E7A4F85C20E6E70026ECE74B46A6
:101C9000002220212046CDF800A000F003FE08B16C
:101CA0000320CCE72068808C8EB100EA080006F89B
:101CB000010B00BFB4F85A00401EA4F85A00B4F853
:101CC0005A000028E3D12020E0670020B7E7384021
:101CD00025F8020BEEE7FFE70220B0E718BCBDE8ED
:101CE000E08F00002DE9F8430446806F1F4616463A
:101CF0000D4620284FD1CDB1C6B194F8740001280B
:101D000049D0012084F874004FF00008C4F88080A6
:101D10002120A067FEF764FEA4F850608146A4F875
:101D20005260A068B0F5805F03D004E00120BDE8F8
:101D3000F883206928B12E465FF0000584F874808E
:101D400010E00026FAE78021204600F0ABFDB8B98C
:101D5000C6B116F8010B21680885B4F85200401E80
:101D6000A4F85200B4F852004B464FF0000200971E
:101D70000028E8D14FF04001204600F093FD30B13B
:101D80000320D4E735F8020BC0F30800E3E7202076
:101D9000A0670020CBE70220C9E7FEE701688A6957
:101DA000D243920701D400228A6200688169C94344
:101DB000C90703D0816941F00101816170470000CA
:101DC0002DE9F047044600688A46174681690025D8
:101DD0002E46C906A9464FF0200849D51021C161F9
:101DE00037E000BFBAF1FF3F33D0FEF7F9FDC11B6A
:101DF000514502D8BAF1000F2BD12068416894F800
:101E0000422001F480418369DB431B041CD4B1F5FB
:101E1000804F19D0202A17D0416841F48041416099
:101E2000FEF7DEFD07460FE0FEF7DAFDC01B1928BE
:101E30000AD9606C40F02000606484F8418084F826
:101E4000429084F84090012520688069C043800654
:101E5000EAD420688069C043800602D5002DC1D035
:101E600003E015B92168C1F81C8046F0040601257D
:101E700021688869C20505D54FF4807246F00106D5
:101E8000CA610125410509D522684FF4806146F0F9
:101E90000806D1610125800502D40AE0800507D536
:101EA00021684FF4007046F00206C861012500E089
:101EB0008DB12046FFF772FF54F8240B4168074AA2
:101EC00011404160206A3043206284F81D8084F80C
:101ED0001E9084F81C902846BDE8F08700E800FEBC
:101EE00010B5C1F3090141EA02410268029C19439D
:101EF0002143506821F000414FF4806303EA5453BA
:101F0000024C234398430843506010BDFF63FF0316
:101F10002DE9F0411D4617460E460446DDF81880AF
:101F200008E0681C06D0FEF75BFDA0EB0800A842A5
:101F30000BD855B12068806936EA000012D0002025
:101F4000B842EED00020BDE8F08154F8440F40F0D4
:101F5000200044F80409202060700020A070207048
:101F60000120F0E70120EBE72DE9F0412026904623
:101F70000F460446002530E0424639462046FFF72A
:101F80001FFF10BB20688069C04380061ED42068F4
:101F90008169C943490701D4218D19BB8169C943AE
:101FA000C90604D41021C1610420606400E06564A6
:101FB0002068C66120684168114A1140416084F878
:101FC000416084F8425084F8405016E0FEF708FD66
:101FD000A0EB0800B84208D83FB120688069C04330
:101FE0004007C9D40020BDE8F08154F8440F40F008
:101FF000200044F80409667025700120F3E7000012
:1020000000E800FE70B516460D4604460DE0324667
:1020100029462046FFF7D4FE08B1012070BDFEF727
:10202000DFFC801BA84207D835B120688069C04317
:102030008006ECD4002070BD54F8440F40F020001E
:1020400044F80409202060700020A0702070E4E7AC
:1020500070B516460D4604460FE032462946204626
:10206000FFF7AEFE08B1012070BD681C05D0FEF779
:10207000B7FC801BA84207D835B120688069C043EF
:102080008007EAD4002070BD54F8440F40F02000CF
:1020900044F80409202060700020A0702070E2E75E
:1020A00030B587B014216846FEF795FA1F48C16C19
:1020B00041F00401C164C16C01F004010591C16CDF
:1020C00041F08001C164C16C01F080010591C16CD7
:1020D00041F00101C164C16C01F001010591C16CC5
:1020E00041F00201C164C06C4FF0904500F0020065
:1020F0000590002220212846FEF76DFC4FF4005089
:1021000000904FF404100024CDE90104694608480A
:10211000FEF752FB202000900120CDE90104694622
:1021200028460394FEF748FB07B030BD001002407C
:1021300000080048124810B510490160114941607B
:1021400000210122C0E90212016141618161C16186
:102150000162FEF79FFC08B172B6FEE70021084855
:10216000FEF744FC08B172B6FEE700210448FEF712
:1021700068FC002801D072B6FEE710BD0054004094
:102180001C020020EC9C90100C4810B50A4901601C
:102190004FF416514160002181600C22C160C0E9FA
:1021A00004128161C16101624162FFF785FC002870
:1021B00001D072B6FEE710BD003801406802002071
:1021C0000C4810B50A4901604FF4165141600021D6
:1021D00081600C22C160C0E904128161C1610162A9
:1021E0004162FFF769FC002801D072B6FEE710BD1E
:1021F00000440040EC020020FEE7FEE770470000CC
:102200002DE9F041444C05468846E06800268107E8
:1022100028680DD0E16801F00301814216D1A8B110
:10222000E0686968C0F30210401C88420ED120E0CB
:10223000012804D0022805D0032807D108E021682E
:10224000890701E021684905002907DB01265FE0D5
:102250002168890302D421684903F5E7E1686A68C7
:102260006FF00F0321F0730103EB021211430143DE
:10227000E160206820F080602060FEF7B1FB074637
:1022800005E000BFFEF7ACFBC01B022837D8206872
:102290000001F7D4B8F1000F18D0B8F1010F1ED02B
:1022A000287D4FF07E41400801EB4060A96840EA7C
:1022B00001202169194A114008432061206840F03B
:1022C00080602060FEF78CFB07461AE0A868E9688A
:1022D0000002090940EA41402169114AEBE7288AD6
:1022E0001049400801EB4050A96840EA01202169EB
:1022F0000D4AE0E7FEF774FBC01B022801D9032654
:1023000006E020680001F5D52069A969084320612D
:102310003046BDE8F081000000100240FF80FFF968
:10232000FF80FDFF0000E0FFFF809FFF2DE9F041EF
:102330003D4C06468846E0680025810730680DD090
:10234000E16801F00301814216D1A8B1E06871682B
:10235000C0F30210401C88420ED120E0012804D0B6
:10236000022805D0032807D108E02168890701E089
:1023700021684905002907DB012551E0216889030F
:1023800002D421684903F5E7E16872686FF00F0332
:1023900021F0730103EB021211430143E160206855
:1023A00020F080502060FEF71BFB074605E000BFD1
:1023B000FEF716FBC01B022829D820688000F7D43E
:1023C000B8F1000F15D0307C4FF07E41400801EB92
:1023D0004060B16840EA01206169144A1140084335
:1023E0006061206840F080502060FEF7F9FA0746EF
:1023F0000FE0B068F1680002090940EA41406169F4
:102400000B4AEBE7FEF7ECFAC01B022801D90325C3
:1024100006E020688000F5D5606971690843606155
:102420002846BDE8F081000000100240FF80FFF95F
:10243000FF80FDFFF8B51C4D06460024A86DC000C6
:1024400002D5FEF7ABFD0DE0A86D40F08050A86509
:10245000A86D00F080500090FEF7A0FDA96D21F05E
:102460008051A965B0F5007F04D0802E07D94FF0C8
:1024700003040AE0802E08D9A02E01D804E001D17F
:10248000022402E0702E00D101240848016821F0E6
:10249000070121430160006800F00700A04201D05D
:1024A0000120F8BD0020F8BD0010024000200240CD
:1024B0007047FEF7B7BC00B597B044216846FEF7F9
:1024C0008AF8142111A8FEF786F84FF40070FEF781
:1024D00031FD08B172B6FEE70220C101039110215F
:1024E000009004910A900121CDE90B010A210D9180
:1024F0000721CDE90E1010906846FFF735F808B1B6
:1025000072B6FEE70F201190032012900020139066
:1025100014901590042111A8FEF720FF002801D087
:1025200072B6FEE717B000BD0248016841F47001C1
:102530000160704788ED00E090F82410C90706D0CC
:1025400001684A68836A22F400321A434A6090F8AC
:102550002410890706D501684A68C36A22F48032CC
:102560001A434A6090F82410490706D501684A6862
:10257000036B22F480221A434A6090F82410090762
:1025800006D501684A68436B22F400421A434A6048
:1025900090F82410C90606D501688A68836B22F476
:1025A00080521A438A6090F82410890606D5016883
:1025B0008A68C36B22F400521A438A6090F8241090
:1025C000490611D501684A68036C22F480121A4347
:1025D0004A60016CB1F5801F06D101684A68436CFE
:1025E00022F4C0021A434A6090F82410090606D566
:1025F00001684A68806C22F4002202434A607047F6
:10260000F8B500260446C0F88060FEF7E9F90546F3
:10261000206800686FF07E47000708D52B4600222F
:102620004FF400112046009700F03CF960B9206893
:10263000006840070AD52B4600224FF4800120464F
:10264000009700F02FF908B10320F8BD2020A06703
:10265000E067266684F874600020F8BD2DE9F0413B
:102660000446016880682269E369104362690025B5
:102670001A431043814F0A68814B1A4002430A6093
:1026800020684168E26821F44051114341602168AB
:10269000A069B94201D0226A10438A6822F43062EC
:1026A00002438A607749226877488A420DD1D0F880
:1026B000880010F0030006D0012866D0022854D00C
:1026C000032851D163E001204FE070498A420BD1C9
:1026D000D0F8880010F00C0047D0042845D0082816
:1026E00051D00C2840D152E069498A420BD1D0F830
:1026F000880010F0300038D0102846D0202842D072
:10270000302831D143E063498A420BD1D0F88800A8
:1027100010F0C00029D0402837D0802833D0C028FE
:1027200022D134E05C498A420ED1D0F8880010F4FE
:1027300040701AD0B0F5807F27D0B0F5007F22D04E
:10274000B0F5407F10D122E0BA420DD1D0F8880018
:1027500010F4406009D0B0F5806F16D0B0F5006F6E
:1027600011D0B0F5406F12D010204C4900264FF424
:102770000043BA422ED160B102280DD004280DD0FA
:1027800008286FD10EE00220EFE70420EDE70820D3
:10279000EBE7FEF773FE03E00B4603E0FEF792FE65
:1027A000030060D0626802EB420098425AD8B3EB53
:1027B000023F57D8190E1B02500818187141002308
:1027C000FDF776FD364AA0F5407191424AD821685E
:1027D000C86048E0E2694FF6EF779A4227D10928AE
:1027E00040D2DFE800F005080D3F213F3F3F0E00DB
:1027F000FEF744FE01E0FEF753FE030001D132E094
:102800000B466068590001EB5001B1FBF0F0A0F1FC
:102810001001B94226D84FF6F0710140C0F34200D2
:1028200001432068C1601EE0FEF74CFEE5E7092881
:1028300018D2DFE800F005080D171D1717170E0056
:10284000FEF71CFE01E0FEF72BFE030001D10AE0BB
:102850000B46606803EB5001B1FBF0F0A0F11001F2
:10286000B94208D9012566662846A666BDE8F0810A
:10287000FEF728FEE9E780B2A9E7000000800040EB
:10288000F369FFEF003801400010024000440040AF
:1028900000480040004C0040005000400024F4007C
:1028A000FFFC0F002DE9F0479A4617460E460446F6
:1028B0004FF000094FF02008089D4AE0681C48D0FE
:1028C000FEF78EF8A0EB0A00A8422AD84DB3206884
:1028D000016849073DD5C069C043000539D4216866
:1028E0004FF400600862206850E8001F21F4D071A6
:1028F00040E80012002AF6D12068083050E8001F96
:1029000021F0010140E80012002AF5D1C4F87880D6
:10291000C4F87C80C4F8808084F874900320BDE8FB
:10292000F087216851E8000F20F4D07041E80002E0
:10293000002AF6D12068083050E8001F21F001017C
:1029400040E80012002AF5D1C4F87880C4F87C80F1
:10295000E2E72068C06936EA000004D00020B842EF
:10296000ACD00020DBE70120F9E7FEE70907090EFC
:10297000002804DB00F1E02080F80014704700F02C
:102980000F0000F1E02080F8141D70472DED028B40
:10299000E448E449C8B0007A08703C22E2A11DA8CE
:1029A000FDF7C5FDEFA00DF1B80C0FC88CE80F00C6
:1029B0002022F0A132A8FDF7BAFD1822F5A142A805
:1029C000FDF7B5FD1822F9A13BA8FDF7B0FDFDA06C
:1029D00000683A90FEF72EFAFFF76DFDFFF760FBF7
:1029E000FFF7A8FBFFF7D0FBFFF7EAFB32A8FDF7E4
:1029F0007FFD82B24FF0FF34234632A9F248FFF741
:102A000071F9C8480C30FDF773FD82B2C549EE4834
:102A100023460C318438FFF765F9EB494FF4FA7619
:102A20008E3133460F22A1F58970FFF7DBF8750070
:102A30002846FDF7AFFEE4488E30FDF759FDE24928
:102A400082B223468E31E048FFF74CF9DE489621EA
:102A50008E30FDF79EFDB3481630FDF749FD82B27A
:102A6000B049D948234616318438FFF73BF9D64997
:102A700033468E310F22A1F58970FFF7B3F828464F
:102A8000FDF788FED0488E30FDF732FDCE4982B288
:102A900023468E31CC48FFF725F9CB4896218E305E
:102AA000FDF777FD9F482A30FDF722FD82B29D4950
:102AB000C54823462A318438FFF714F9C249334602
:102AC0008E315022A1F58970FFF78CF82846FDF76A
:102AD00061FEBD488E30FDF70BFDBB4982B2234637
:102AE0008E31B948FFF7FEF8B74896218E30FDF7D2
:102AF00050FDB648FDF7FCFC82B2B3482346B3490B
:102B00008438FFF7EFF8B04933468E315022A1F5F3
:102B10008970FFF767F82846FDF73CFEAA488E301B
:102B2000FDF7E6FCA84982B223468E31A648FFF79E
:102B3000D9F8A54896218E30FDF72BFD32A8FDF778
:102B4000D7FC82B2234642A99F48FFF7CBF84FF04B
:102B5000640A00274FF073094FF074084FF06F0BB1
:102B6000994D84352878732808D16878742805D160
:102B7000A8786F2802D1E878702806D0924C8E345D
:102B800094F8660053280FD01AE03BA8FDF7B0FC7C
:102B900082B264233BA98C48FFF7A4F88A489621A7
:102BA0008430FDF718FDDBE794F86700742807D13F
:102BB00094F868006F2803D194F86900702819D040
:102BC00058488E30FDF794FC82B256497E48642303
:102BD0008E318438FFF786F87B4940F2DC538E3122
:102BE0009622A1F58970FEF7FDFF94F86600532840
:102BF0000AD01BE03BA8FDF77BFC82B264233BA913
:102C00007148FFF76FF811E094F8670074280DD150
:102C100094F86800612809D194F86900722805D1F8
:102C200069488E3090F86A00742805D0664896216D
:102C30008E30FDF7AEFC93E76348012696218E3077
:102C4000FDF7A7FC4FF47A7501E0002E88D05E49AD
:102C50002B46052284315C48FEF7C4FF002EA2D02B
:102C600059480A218430FDF7B6FC57488DF80470A6
:102C70005446012301AA9021D038CDF800A0FDF7D9
:102C8000FBFF08B152A109E04F48022301AA90219D
:102C9000D0380094FDF75AFF70B150A101A8FDF79C
:102CA00003FC49488430702180F8009080F801804E
:102CB00080F802B0C170A6E043486122843080F8F9
:102CC000009080F8018082707222C27080F80480C7
:102CD0009DF804009DF80510000140EA1110B0F5C0
:102CE000006F02DB40F4704000B200F0BEF99FEDCF
:102CF0003E1B53EC112B00F0CFF900F085F900EEEC
:102D0000100ADFED3B0A20EE208ABCEEC80A10EE66
:102D1000100AB0FBF4F104FB110310EE100AB0FB33
:102D2000F4F267E000000020566972737974612044
:102D300074656D70657261747572612E205369756A
:102D40006E6369616D61207A696E7574652E2E2ED1
:102D5000207C7C2054656D70657261747572613A77
:102D6000200000005A696E75746520697373697577
:102D7000737461004B7261756E616D612070726F6A
:102D80006772616D612E2050616C61756B6974654D
:102D90002E0D0A0050726F6772616D612070616B59
:102DA00072617574612E0D0A0000000050726F6729
:102DB00072616D6120737573746162647974610D01
:102DC0000A0000000D0A0000EC020020240100208F
:102DD0004572726F722054780D0A00004572726F4E
:102DE000722052780D0A0000000000000000B03F81
:102DF0000000C8427DA101A8FDF7D2FA642201A912
:102E000004A8FDF794FB18EE100A7B49884264DDA4
:102E10007A484168491C4160012952DC1DA8FDF730
:102E200067FB82B24FF0FF3423461DA97448FEF7BA
:102E300059FF01A8FDF75CFB82B2234601A9704847
:102E4000FEF750FF6F48FDF753FB82B26C482346F4
:102E50006C498438FEF746FF2846FDF79BFC69481D
:102E60001E30FDF745FB82B26649654823461E3198
:102E70008438FEF737FF2846FDF78CFC5F48FDF7E6
:102E800037FB82B25E4823465C498438FEF72AFF4E
:102E90002846FDF77FFC2EA8FDF72AFB82B22346C9
:102EA0002EA95748FEF71EFF3AA8FDF721FB82B274
:102EB00023463AA95248FEF715FF2846FDF76AFC5B
:102EC000C3E64F498431702281F8009081F8018077
:102ED00081F802B0CA704760B7E649488E3090F872
:102EE0006610432902D0532952D05EE090F8671053
:102EF00068295AD190F86810652956D190F8691060
:102F0000632952D190F86A006B284ED13D48FDF7F5
:102F1000EFFA82B23A484FF0FF34234639498438F9
:102F2000FEF7E0FE2846FDF735FC36481E30FDF77B
:102F3000DFFA82B23248234604A98438FEF7D2FE73
:102F40002846FDF727FC2D48FDF7D2FA82B22C481F
:102F500023462A498438FEF7C5FE2846FDF71AFCA9
:102F6000274896218E30FDF714FB2EA8FDF7C0FAF6
:102F700082B223462EA92248FEF7B4FE3AA8FDF7F6
:102F8000B7FA82B223463AA91D48FEF7ABFE5CE6CB
:102F900090F86710742908D190F868106F2904D14F
:102FA00090F8690070283FF4FEAD01A8FDF7A0FA83
:102FB00082B24FF0FF3301A91148FEF793FE0F488C
:102FC0008E30FDF795FA82B20C490D4864238E319C
:102FD0008438FEF787FE0A4940F2DC538E31962290
:102FE000A1F58970FEF7FEFD2FE6000025752E2560
:102FF0007520430D0A000000002019450000002044
:10300000EC0200208801002021F00042A2F1605271
:10301000B2F5801F01F0004328BFD2F17F6C0BD9BD
:103020005FEA001C43EAC20242EB507018BF7047CF
:1030300028BF20F001007047B2F5801FBCBF1846C2
:1030400070474FEA410C1CF5001F02D2084600F001
:1030500026B970B500F0CAF800000089FFF7F6BF86
:103060004FF00040A0F58000704710F0004248BFCC
:103070004042B0FA80F310FA03F10AD0C3F11D0305
:1030800003F580634FEA415002EB035202EBD1217A
:1030900070474FF000007047DFF848C170B51CEA78
:1030A000111E1EBF1CEA13159EEA0C0F95EA0C0FA9
:1030B00000F06F8081EA030423EA4C134EEAD47EC9
:1030C00021EA4C1141F4801143F48013AE44A1FB7A
:1030D000024CA0FB0365AEF17F7E361955EB0C0563
:1030E000A1FB034C4CF10003A0FB021C16EB0C06E9
:1030F000654153F10003094218BF46F0010613F47D
:10310000007F0BD14FEA03314FEA0530340341EA27
:10311000155140EA16506FF003020AE04FEAC3214E
:103120004FEAC520F40241EA555140EA56506FF08B
:10313000020202EB2E4201EB025585EACE710AD063
:103140005FEA440C18BF24F0004450F1000041F144
:10315000000120EAD47040F2FE7C624500D270BDCE
:10316000A84214BF4FF080444FF04044002E08BFE7
:103170000024BEF1806FA8BFA1F1C041BDE870403E
:1031800080F282804FF0000001F1C04101F0004167
:1031900070479EEA0C0F0CEA131518BF95EA0C0F46
:1031A00006D04FF0000081EA030E0EF0004170BD22
:1031B00000F01CF88900013E00F007B800F009B8E3
:1031C0004FEA430C5FEA5C5C08D081EA030100F03F
:1031D0005BB84FEA410C5FEA5C5CF6D14FF000004F
:1031E000014970470000FF070000F87F0EF1020E52
:1031F0002EF0030E5EF8046B364205D4012A43EB31
:10320000030515F5001F12D8012841EB010C1CF530
:10321000001F0CD80ED14FEAD17C15F5001F0CEB26
:103220004C0C0CF1020C08BF4CEBD37C04E04FF0CB
:10323000080C01E04FEAD37C0CEB4C0526FA05F6AE
:1032400006F00706B6F1040C06D20EEB860CBDE8BC
:1032500070404CF0010C6047DFE80CF0090B0202F3
:103260004FF000414FF00000A1F5002170BD19465C
:103270001046012851EB010418BFD4F5001484BF97
:10328000002001F0004170BD0808A0F500114FEAD0
:10329000310170474FF04070E1EE100A7047FF2196
:1032A00041EAD050C0057047000000000000000057
:1032B0000102030406070809A0860100400D03006F
:1032C000801A060000350C0040420F0080841E006A
:1032D00000093D0000127A000024F40000366E015F
:1032E0000048E801006CDC02000000000102030459
:1032F00010330008000000201C020000C401000878
:10330000803300081C02002054080000200200083E
:1033100081321A7441540D680A41542B434D47467B
:103320003D311179149E443D312C3416014E4964CF
:103330000808574C3D22414C4C2266093296780AC7
:10334000504D533D22534D222C05094C9F49FA19EB
:1033500064780D2B333730363131363936323964B3
:10336000001552566972737974612074656D7065C9
:103370007261747572612E3201821013093D000072
:040000050800018965
:00000001FF
